{
  "_format": "hh-sol-artifact-1",
  "contractName": "ModelVault",
  "sourceName": "contracts/ModelVault.sol",
  "abi": [
    {
      "anonymous": false,
      "inputs": [
        {
          "indexed": false,
          "internalType": "string",
          "name": "modelVersion",
          "type": "string"
        },
        {
          "indexed": false,
          "internalType": "string",
          "name": "ipfsHash",
          "type": "string"
        },
        {
          "indexed": false,
          "internalType": "string",
          "name": "modelHash",
          "type": "string"
        },
        {
          "indexed": false,
          "internalType": "uint256",
          "name": "timestamp",
          "type": "uint256"
        },
        {
          "indexed": false,
          "internalType": "address",
          "name": "uploader",
          "type": "address"
        }
      ],
      "name": "ModelSaved",
      "type": "event"
    },
    {
      "inputs": [
        {
          "internalType": "string",
          "name": "modelVersion",
          "type": "string"
        }
      ],
      "name": "getModel",
      "outputs": [
        {
          "internalType": "string",
          "name": "ipfsHash",
          "type": "string"
        },
        {
          "internalType": "string",
          "name": "modelHash",
          "type": "string"
        },
        {
          "internalType": "uint256",
          "name": "timestamp",
          "type": "uint256"
        },
        {
          "internalType": "address",
          "name": "uploader",
          "type": "address"
        }
      ],
      "stateMutability": "view",
      "type": "function"
    },
    {
      "inputs": [
        {
          "internalType": "string",
          "name": "",
          "type": "string"
        }
      ],
      "name": "models",
      "outputs": [
        {
          "internalType": "string",
          "name": "modelVersion",
          "type": "string"
        },
        {
          "internalType": "string",
          "name": "ipfsHash",
          "type": "string"
        },
        {
          "internalType": "string",
          "name": "modelHash",
          "type": "string"
        },
        {
          "internalType": "uint256",
          "name": "timestamp",
          "type": "uint256"
        },
        {
          "internalType": "address",
          "name": "uploader",
          "type": "address"
        }
      ],
      "stateMutability": "view",
      "type": "function"
    },
    {
      "inputs": [
        {
          "internalType": "string",
          "name": "modelVersion",
          "type": "string"
        },
        {
          "internalType": "string",
          "name": "ipfsHash",
          "type": "string"
        },
        {
          "internalType": "string",
          "name": "modelHash",
          "type": "string"
        }
      ],
      "name": "saveModel",
      "outputs": [],
      "stateMutability": "nonpayable",
      "type": "function"
    },
    {
      "inputs": [
        {
          "internalType": "string",
          "name": "modelVersion",
          "type": "string"
        },
        {
          "internalType": "string",
          "name": "providedHash",
          "type": "string"
        }
      ],
      "name": "verifyModel",
      "outputs": [
        {
          "internalType": "bool",
          "name": "",
          "type": "bool"
        }
      ],
      "stateMutability": "view",
      "type": "function"
    }
  ],
  "bytecode": "0x6080604052348015600f57600080fd5b506111d68061001f6000396000f3fe608060405234801561001057600080fd5b506004361061004c5760003560e01c8063334939eb14610051578063bbf8a0261461006d578063f9103e4c146100a1578063fab57404146100d1575b600080fd5b61006b600480360381019061006691906109cb565b610104565b005b61008760048036038101906100829190610a72565b6102aa565b604051610098959493929190610b94565b60405180910390f35b6100bb60048036038101906100b69190610bfc565b6104ae565b6040516100c89190610c8f565b60405180910390f35b6100eb60048036038101906100e69190610a72565b610596565b6040516100fb9493929190610caa565b60405180910390f35b82600080826040516101169190610d39565b9081526020016040518091039020600001805461013290610d7f565b905014610174576040517f08c379a000000000000000000000000000000000000000000000000000000000815260040161016b90610dfc565b60405180910390fd5b6040518060a001604052808581526020018481526020018381526020014281526020013373ffffffffffffffffffffffffffffffffffffffff168152506000856040516101c19190610d39565b908152602001604051809103902060008201518160000190816101e49190610fc8565b5060208201518160010190816101fa9190610fc8565b5060408201518160020190816102109190610fc8565b506060820151816003015560808201518160040160006101000a81548173ffffffffffffffffffffffffffffffffffffffff021916908373ffffffffffffffffffffffffffffffffffffffff1602179055509050507f89deee4b29f54ed1426cc1e7e256ed92fb3570dd4dc3ad395ce5b85ccdfdaa39848484423360405161029c959493929190610b94565b60405180910390a150505050565b6000818051602081018201805184825260208301602085012081835280955050505050506000915090508060000180546102e390610d7f565b80601f016020809104026020016040519081016040528092919081815260200182805461030f90610d7f565b801561035c5780601f106103315761010080835404028352916020019161035c565b820191906000526020600020905b81548152906001019060200180831161033f57829003601f168201915b50505050509080600101805461037190610d7f565b80601f016020809104026020016040519081016040528092919081815260200182805461039d90610d7f565b80156103ea5780601f106103bf576101008083540402835291602001916103ea565b820191906000526020600020905b8154815290600101906020018083116103cd57829003601f168201915b5050505050908060020180546103ff90610d7f565b80601f016020809104026020016040519081016040528092919081815260200182805461042b90610d7f565b80156104785780601f1061044d57610100808354040283529160200191610478565b820191906000526020600020905b81548152906001019060200180831161045b57829003601f168201915b5050505050908060030154908060040160009054906101000a900473ffffffffffffffffffffffffffffffffffffffff16905085565b6000806000846040516104c19190610d39565b908152602001604051809103902060000180546104dd90610d7f565b90500361051f576040517f08c379a0000000000000000000000000000000000000000000000000000000008152600401610516906110e6565b60405180910390fd5b816040516020016105309190610d39565b604051602081830303815290604052805190602001206000846040516105569190610d39565b90815260200160405180910390206002016040516020016105779190611189565b6040516020818303038152906040528051906020012014905092915050565b606080600080600080866040516105ad9190610d39565b908152602001604051809103902060000180546105c990610d7f565b90500361060b576040517f08c379a0000000000000000000000000000000000000000000000000000000008152600401610602906110e6565b60405180910390fd5b6000808660405161061c9190610d39565b90815260200160405180910390206040518060a001604052908160008201805461064590610d7f565b80601f016020809104026020016040519081016040528092919081815260200182805461067190610d7f565b80156106be5780601f10610693576101008083540402835291602001916106be565b820191906000526020600020905b8154815290600101906020018083116106a157829003601f168201915b505050505081526020016001820180546106d790610d7f565b80601f016020809104026020016040519081016040528092919081815260200182805461070390610d7f565b80156107505780601f1061072557610100808354040283529160200191610750565b820191906000526020600020905b81548152906001019060200180831161073357829003601f168201915b5050505050815260200160028201805461076990610d7f565b80601f016020809104026020016040519081016040528092919081815260200182805461079590610d7f565b80156107e25780601f106107b7576101008083540402835291602001916107e2565b820191906000526020600020905b8154815290600101906020018083116107c557829003601f168201915b50505050508152602001600382015481526020016004820160009054906101000a900473ffffffffffffffffffffffffffffffffffffffff1673ffffffffffffffffffffffffffffffffffffffff1673ffffffffffffffffffffffffffffffffffffffff1681525050905080602001518160400151826060015183608001519450945094509450509193509193565b6000604051905090565b600080fd5b600080fd5b600080fd5b600080fd5b6000601f19601f8301169050919050565b7f4e487b7100000000000000000000000000000000000000000000000000000000600052604160045260246000fd5b6108d88261088f565b810181811067ffffffffffffffff821117156108f7576108f66108a0565b5b80604052505050565b600061090a610871565b905061091682826108cf565b919050565b600067ffffffffffffffff821115610936576109356108a0565b5b61093f8261088f565b9050602081019050919050565b82818337600083830152505050565b600061096e6109698461091b565b610900565b90508281526020810184848401111561098a5761098961088a565b5b61099584828561094c565b509392505050565b600082601f8301126109b2576109b1610885565b5b81356109c284826020860161095b565b91505092915050565b6000806000606084860312156109e4576109e361087b565b5b600084013567ffffffffffffffff811115610a0257610a01610880565b5b610a0e8682870161099d565b935050602084013567ffffffffffffffff811115610a2f57610a2e610880565b5b610a3b8682870161099d565b925050604084013567ffffffffffffffff811115610a5c57610a5b610880565b5b610a688682870161099d565b9150509250925092565b600060208284031215610a8857610a8761087b565b5b600082013567ffffffffffffffff811115610aa657610aa5610880565b5b610ab28482850161099d565b91505092915050565b600081519050919050565b600082825260208201905092915050565b60005b83811015610af5578082015181840152602081019050610ada565b60008484015250505050565b6000610b0c82610abb565b610b168185610ac6565b9350610b26818560208601610ad7565b610b2f8161088f565b840191505092915050565b6000819050919050565b610b4d81610b3a565b82525050565b600073ffffffffffffffffffffffffffffffffffffffff82169050919050565b6000610b7e82610b53565b9050919050565b610b8e81610b73565b82525050565b600060a0820190508181036000830152610bae8188610b01565b90508181036020830152610bc28187610b01565b90508181036040830152610bd68186610b01565b9050610be56060830185610b44565b610bf26080830184610b85565b9695505050505050565b60008060408385031215610c1357610c1261087b565b5b600083013567ffffffffffffffff811115610c3157610c30610880565b5b610c3d8582860161099d565b925050602083013567ffffffffffffffff811115610c5e57610c5d610880565b5b610c6a8582860161099d565b9150509250929050565b60008115159050919050565b610c8981610c74565b82525050565b6000602082019050610ca46000830184610c80565b92915050565b60006080820190508181036000830152610cc48187610b01565b90508181036020830152610cd88186610b01565b9050610ce76040830185610b44565b610cf46060830184610b85565b95945050505050565b600081905092915050565b6000610d1382610abb565b610d1d8185610cfd565b9350610d2d818560208601610ad7565b80840191505092915050565b6000610d458284610d08565b915081905092915050565b7f4e487b7100000000000000000000000000000000000000000000000000000000600052602260045260246000fd5b60006002820490506001821680610d9757607f821691505b602082108103610daa57610da9610d50565b5b50919050565b7f4d6f64656c2076657273696f6e20616c72656164792065786973747300000000600082015250565b6000610de6601c83610ac6565b9150610df182610db0565b602082019050919050565b60006020820190508181036000830152610e1581610dd9565b9050919050565b60008190508160005260206000209050919050565b60006020601f8301049050919050565b600082821b905092915050565b600060088302610e7e7fffffffffffffffffffffffffffffffffffffffffffffffffffffffffffffffff82610e41565b610e888683610e41565b95508019841693508086168417925050509392505050565b6000819050919050565b6000610ec5610ec0610ebb84610b3a565b610ea0565b610b3a565b9050919050565b6000819050919050565b610edf83610eaa565b610ef3610eeb82610ecc565b848454610e4e565b825550505050565b600090565b610f08610efb565b610f13818484610ed6565b505050565b5b81811015610f3757610f2c600082610f00565b600181019050610f19565b5050565b601f821115610f7c57610f4d81610e1c565b610f5684610e31565b81016020851015610f65578190505b610f79610f7185610e31565b830182610f18565b50505b505050565b600082821c905092915050565b6000610f9f60001984600802610f81565b1980831691505092915050565b6000610fb88383610f8e565b9150826002028217905092915050565b610fd182610abb565b67ffffffffffffffff811115610fea57610fe96108a0565b5b610ff48254610d7f565b610fff828285610f3b565b600060209050601f8311600181146110325760008415611020578287015190505b61102a8582610fac565b865550611092565b601f19841661104086610e1c565b60005b8281101561106857848901518255600182019150602085019450602081019050611043565b868310156110855784890151611081601f891682610f8e565b8355505b6001600288020188555050505b505050505050565b7f4d6f64656c2076657273696f6e20646f6573206e6f7420657869737400000000600082015250565b60006110d0601c83610ac6565b91506110db8261109a565b602082019050919050565b600060208201905081810360008301526110ff816110c3565b9050919050565b6000815461111381610d7f565b61111d8186610cfd565b94506001821660008114611138576001811461114d57611180565b60ff1983168652811515820286019350611180565b61115685610e1c565b60005b8381101561117857815481890152600182019150602081019050611159565b838801955050505b50505092915050565b60006111958284611106565b91508190509291505056fea2646970667358221220c5392671ab537fd10c179189bdc2a22a2080db11b9f5eafca6213b3650e2d17064736f6c634300081b0033",
  "linkReferences": {},
  "deployedLinkReferences": {}
}